:020000040000FA
:020000000328D3
:040002000034003492
:0A00060007309F000313831600303B
:100010008600831203014130860033200301213022
:1000200086001E200000000000000301143086003E
:1000300033200301123086001E200A280000000031
:10004000B330A700A70B22285A30A40000003C3090
:10005000A50000003C30A600A60B2C28A50B2928E3
:10006000A40B262808002530A300A30B3528EF3069
:10007000A0000000EB30A10000001C30A200A20B89
:0C0080003F28A10B3C28A00B39280800E9
:02400E00193F58
:00000001FF
